:100000000C9451010C94C2080C94E9080C947901E9
:100010000C9479010C9479010C9479010C94790178
:100020000C9479010C9479010C9479010C94790168
:100030000C9479010C9479010C9479010C94790158
:100040000C9410090C9479010C94C90B0C94FB0BC3
:100050000C9479010C9479010C9479010C94790138
:100060000C9479010C9479012B03F420418900361A
:10007000400A1D806010622C00082B03F420418987
:100080000036400A1D806010622C33082B03F420D8
:1000900041890036400A1D806010622C22081B0333
:1000A000416027520007400A1E806013A92C223AA3
:1000B0001D03A1204EA50013400A1E806027522C6C
:1000C00022481E03D0009D490045400A2080604E12
:1000D000A52C22482B033402752507FF400A1B80FC
:1000E000609D492C220F020368013A9304D5400A0F
:1000F0001E806009D50C221F06034501D7DC076E60
:10010000400A2D80600EBF0C222E8A0360015555D7
:1001100002AD400A50806020000C22C82B03A1E0F1
:1001200010C70009400A1D806004322C22042703F6
:10013000A1E010C70006400A1D806004322C22078F
:100140002B03F42041890036400A1D806010622C88
:1001500023081B03416027520007400A1E806013DA
:10016000A92C233A1D03A1204EA50013400A1E808E
:100170006027522C23481E03D0009D490045400AA9
:100180002080604EA52C23482B033402752507FFE1
:10019000400A1B80609D492C230F020368013A939B
:1001A00004D5400A1E806009D50C231F06034501B3
:1001B000D7DC076E400A2D80600EBF0C232E8A0309
:1001C0006001555502AD400A50806020000C23C8E4
:1001D000510368003A93013D2C1128806009D52C09
:1001E0002108C803392068DC006B2A082A806013C4
:1001F000A92C2108C8039C00D1B700D42904298068
:100200006027522C2108B8039C00D1B700D4288263
:100210002980604EA52C2108A8039C00D1B700D4EA
:1002200028412980609D492C210898039C00D1B762
:1002300000D4282029806009D50C21089803960055
:10024000DA7400DC281F2980600A3D0C21080000B8
:100250000008000201000003040700000000000085
:100260000000010204081020408001020408102050
:10027000010204081020040404040404040402021B
:10028000020202020303030303030000000025002F
:1002900028002B0000000000240027002A0017027D
:1002A0002B0C11241FBECFEFD8E0DEBFCDBF11E075
:1002B000A0E0B1E0EEEFFFE102C005900D92A039A1
:1002C000B107D9F722E0A0E9B1E001C01D92A5383D
:1002D000B207E1F712E0C2EAD2E004C02297FE01C1
:1002E0000E94E70FCE39D107C9F70E94870D0C9401
:1002F000FD0F0C9400000F931F93CF93DF93CDB7A6
:10030000DEB7E5970FB6F894DEBF0FBECDBF9DAB4D
:100310008CAB42E0BE016C5C7F4F80E991E00E94B3
:100320006E0680E991E00E94820582E38BAB64EF68
:1003300071E080E991E00E945205882339F1AE0115
:100340004D5C5F4FBE016F5F7F4F80E991E00E947F
:1003500087058823C1F009811A818CA99DA90817F6
:10036000190719F46AE071E002C06EE071E088EEEE
:1003700091E00E94B90C4AE050E0B80188EE91E0AB
:100380000E946E0D09C062E171E002C061E271E09D
:1003900088EE91E00E94B90CE5960FB6F894DEBFA6
:1003A0000FBECDBFDF91CF911F910F9108950F9395
:1003B0001F9326E040E855E260E070E088EE91E0AF
:1003C0000E94670B80E991E00E949107811106C0AD
:1003D0006FE271E088EE91E00E94B90C0DEC1CEC2C
:1003E0002CE43DE340E050E469ED73E480E991E002
:1003F0000E94C20366E080E991E00E94C50460E4C7
:1004000071E088EE91E01F910F910C94AC0C8DE59A
:100410009BE20E947B0168E471E088EE91E00E941B
:10042000AC0C64E670E080E090E00C94890924E074
:1004300031E040E06AE080E991E00C949902CF93CA
:10044000CFB7F8948091D801811127C0E0E8F2E09D
:100450008491ECE6F2E09491E82FF0E0EE0FFF1FBC
:10046000EC56FD4FA591B4918C91892321F461E064
:100470008AE00E944E0A61E08AE00E94150A8CB56B
:1004800080618CBD8CB580648CBD61E08DE00E9484
:10049000150A61E08BE00E94150A8091D8018F5FF8
:1004A0008093D801CFBFCF9108959FB7F8948091E2
:1004B000D801882319F081508093D8018091D80108
:1004C000811105C08CB58F7B8CBD1092D7019FBF69
:1004D00008956EBD00000DB407FEFDCF8EB50895E2
:1004E0008CB580688CBD08958CB58F778CBD0895D0
:1004F0008CB5611102C0806201C08F7D8CBD0895F2
:100500008CB5837F682B6CBD08959CB5862F837056
:100510009C7F892B8CBD8DB562FB662760F98E7F31
:10052000862B8DBD08950C941F020C9455020895DE
:100530000895FC018BE691E0918380836683478375
:1005400081E085831482DF01AE5BBF4F11961C9260
:100550001E92129711961C921E92149611961C923E
:100560001E923383228381E090E0928781870895F1
:100570000F931F93CF93DF93EC01062F1FB7F894CF
:1005800060E08E810E944E0A8A819B81DC01ED91A0
:10059000FC91602F6F770190F081E02D09958A81A1
:1005A0009B81DC01ED91FC910190F081E02D60E0F8
:1005B0000995082F61E08E810E944E0A1FBF802F8F
:1005C000DF91CF911F910F910895EF92FF920F93BA
:1005D0001F93CF93DF931F92CDB7DEB77C01062F19
:1005E0001FB7F89460E0DC0116968C9149830E9455
:1005F0004E0AF70182819381DC01ED91FC91602F1D
:1006000060680190F081E02D0995F7018281938166
:10061000DC01ED91FC910190F081E02D4981642F86
:10062000099561E0F70186810E944E0A1FBF0F9075
:10063000DF91CF911F910F91FF90EF90089540E8C7
:1006400067E00E94E50261E070E080E090E00C94D9
:100650008909CF92DF92EF92FF920F931F93CF936E
:10066000DF9300D0CDB7DEB78C01D62EF22EEFB6D9
:10067000F89460E0DC0116968C9149835A830E94BD
:100680004E0AF80182819381DC01ED91FC916D2D80
:100690006F770190F081E02D09954981C42E5A8130
:1006A000D52EF40EFC1479F0F80182819381DC01DF
:1006B000ED91FC910190F081E02D60E00995F6014B
:1006C00081936F01EFCF61E0D80116968C910E9463
:1006D0004E0AEFBE0F900F90DF91CF911F910F91B7
:1006E000FF90EF90DF90CF900895CF92DF92EF923E
:1006F000FF920F931F93CF93DF9300D0CDB7DEB758
:100700008C01D62EF22EEFB6F89460E0DC0116963E
:100710008C9149835A830E944E0AF8018281938109
:10072000DC01ED91FC916D2D60680190F081E02D70
:1007300009954981C42E5A81D52EF40EFC1471F00E
:10074000F80182819381D6016D916D01DC01ED91FB
:10075000FC910190F081E02D0995F0CF61E0F80166
:1007600086810E944E0AEFBE0F900F90DF91CF91CD
:100770001F910F91FF90EF90DF90CF90089562E06E
:100780000C94B8026F927F928F929F92AF92BF9219
:10079000CF92DF92EF92FF920F931F93CF93DF934D
:1007A00000D000D0CDB7DEB73C016A017B01480123
:1007B000590120E030E040E753E4C701B6010E9450
:1007C000FC0D87FDBAC020E030E040E754E4C701EB
:1007D000B6010E945C0F18160CF4AFC020E030E0A8
:1007E00040EF53E4C701B6010E945C0F20E030E007
:1007F000A90187FD2EC0C501B4010E94FC0D87FD33
:100800009CC023E333E343EA5EE3C501B4010E94E5
:100810005C0F18160CF491C020E030E040E05FE37C
:10082000C701B6010E94600F6B017C0120E034E239
:1008300044E759E4C501B4010E94600F20E030E4B0
:100840004CE954E40E94000E0E94680EB62E00E6A9
:1008500023C0C501B4010E94FC0D87FD6EC023E3D7
:1008600033E343E25EE3C501B4010E945C0F181656
:100870000CF463C020E034E244E759E4C501B4015C
:100880000E94600F20E030E44CE154E40E94000E2E
:100890000E94680EB62E00E420E030E040E251E411
:1008A000C701B6010E94000E6B017C010E94940EEC
:1008B0009B01AC0129833A834B835C830E94680EC1
:1008C000162F1851102B29813A814B815C81C70169
:1008D000B6010E94970D20E030E04AE757E40E94FD
:1008E000600F0E94680E062F40E063E7C301798322
:1008F0000E94E50240E064E7C3010E94E502412F47
:1009000065E7C3010E94E5027981472F66E7C301CD
:100910000E94E502402F67E7C3010E94E5024B2DCC
:100920006AE2C3010E94E502C3010E94BF0383FB88
:10093000882780F991E0892701C080E00F900F900F
:100940000F900F90DF91CF911F910F91FF90EF903B
:10095000DF90CF90BF90AF909F908F907F906F90DF
:100960000895462F67E00C94E502CF93DF93EC01E6
:100970008C81813039F06D816460CE010E94B104B8
:1009800081E08C83DF91CF910895462F6DE60C9422
:10099000E5020F931F93CF93DF93EC018B01FB01D3
:1009A00040816CE10E94E502F80141816FE1CE01D6
:1009B0000E94E502A8014E5F5F4F26E060E2CE0193
:1009C0000E947503A801485F5F4F23E06CE2CE01EF
:1009D0000E947503F801438568E5CE010E94E50297
:1009E000F801448569E6CE010E94E502A801435F53
:1009F0005F4F25E06EE6CE01DF91CF911F910F9101
:100A00000C9475030F931F93CF93DF93CDB7DEB78D
:100A100062970FB6F894DEBF0FBECDBF8C016C316C
:100A20007105B8F482E1869F9001879F300D1124F3
:100A300028593F4F42E150E0B901CE0101960E9492
:100A4000EB0FBE016F5F7F4FC8010E94C90481E0B8
:100A500001C080E062960FB6F894DEBF0FBECDBF36
:100A6000DF91CF911F910F910895462F64E30C946D
:100A7000E502242FAB0166E30C9475032FB7F894BD
:100A8000FC01138616AE2FBF0895CF93DF93EC01C0
:100A90008EAD811103C0CE010E94B5048EADDF91F1
:100AA000CF9108958F929F92AF92BF92CF92DF9293
:100AB000EF92FF92CF93DF93EC016B010E945A09F2
:100AC0004B015C01E12CF12C0E945A09681979094B
:100AD0008A099B096C157D058E059F0538F4CE01AA
:100AE0000E944505882381F381E001C080E0DF9109
:100AF000CF91FF90EF90DF90CF90BF90AF909F90FD
:100B00008F900895FC0124812230E1F30895DF9253
:100B1000EF92FF920F931F93CF93DF93EC017B0132
:100B20008A010E9445058823C1F0DFB6F8948B85C1
:100B3000F8019081891710F48B858083F80140813A
:100B400050E0BE01645F7F4FC7010E94F40FCE01E9
:100B50000E943E05DFBE81E001C080E0DF91CF91C1
:100B60001F910F91FF90EF90DF9008952FB7F894A9
:100B7000FC01138617AE2FBF08950F931F93CF93D9
:100B8000DF93EC01142F8B8550E09A01280F311D63
:100B90002333310578F40FB7F8948B8590E00C96E9
:100BA0008C0F9D1F0E94F40F8B85810F8B870FBFC9
:100BB00081E001C080E0DF91CF911F910F910895F6
:100BC0000F931F93CF93DF9300D01F92CDB7DEB763
:100BD0008C014B8369837A830E94B6054B816981BE
:100BE0007A81442351F0C8010F900F900F90DF914C
:100BF000CF911F910F910C94BD0580E00F900F9045
:100C00000F90DF91CF911F910F9108951F93CF9374
:100C1000DF93EC019FAD8B859817A0F41B858FADFA
:100C2000181B1C3308F01BE34FAD50E0445F5F4FCF
:100C30004C0F5D1F212F6FE7CE010E9475038FAD12
:100C4000810F8FAFDF91CF911F910895FC018385B4
:100C50000895CF93DF93EC0143E068E00E94E50242
:100C600040E068E0CE01DF91CF910C94E502CF9394
:100C7000DF93EC0142E068E00E94E50240E068E0BA
:100C8000CE01DF91CF910C94E502CF93DF93EC017D
:100C90008C81823061F06D816860CE010E94B10468
:100CA00082E08C83CE01DF91CF910C943706DF91E7
:100CB000CF910895CF93DF93EC010E9406064B85F8
:100CC0006EE3CE010E94E502CE01DF91CF910C943C
:100CD0004506FC01148217AE0C945A06EF92FF925F
:100CE0001F93CF93DF9300D01F92CDB7DEB77C0167
:100CF0004B8369837A830E9482051FB7F8944B81E6
:100D000069817A81C7010E94E005882329F0C70123
:100D10000E945A0681E001C080E01FBF0F900F9033
:100D20000F90DF91CF911F91FF90EF900895FF9268
:100D30000F931F93CF93DF9300D0CDB7DEB78C0115
:100D400022E0AE014F5F5F4F63E00E94290389817B
:100D500087FF13C0C8010E942906D80114968C9100
:100D6000823021F4C8010E94690607C0F80184811D
:100D7000813019F4C8010E943E05898185FF03C0B6
:100D8000C8010E940606898184FF03C0C8010E9431
:100D90002606898183FF08C0D801ED91FC9101905E
:100DA000F081E02DC80109958A8183FF08C0D80130
:100DB000ED91FC910280F381E02DC8010995298114
:100DC00022FF0AC0F801EC5BFF4F80819181019600
:100DD00091838083F801148221FF2EC06BE4C80147
:100DE0000E94B802F82EF2E3F81708F453C0D801B5
:100DF0001B968C91F81608F44DC0D8011B968C9167
:100E00001B971B964C912F2D281B50E0445F5F4F82
:100E1000400F511F6FE7C8010E942903F801EE5BE4
:100E2000FF4F208131812F5F3F4F31832083F801B5
:100E3000F386148281E086AF898180FF1CC0F801AF
:100E4000E05CFF4F80819181019691838083C8018E
:100E50000E943E05C8010E943706F8011482848171
:100E6000813049F065816460C8010E94B10481E06D
:100E7000D80114968C938A8186FF19C066E2C80156
:100E80000E94B802F801EA5BFF4F8083C8010E940C
:100E900037060AC0F801E05CFF4F8081918101961E
:100EA00091838083F8011482C8010E943E050F904F
:100EB0000F90DF91CF911F910F91FF900895809136
:100EC000D9019091DA01009711F00C9497060895DA
:100ED0008091DB019091DC01009711F00C94970652
:100EE00008958091DD019091DE01009711F00C943E
:100EF00097060895462F6AE30C94E502462F6BE3AC
:100F00000C94E502462F6CE30C94E502462F6DE34A
:100F10000C94E502462F21E04227419563E40C94AE
:100F2000E5020F931F93CF93DF9300D0CDB7DEB7C9
:100F30008C0160E170E080E090E00E94890961E04E
:100F4000D80116968C910E94150A61E0F8018681FD
:100F50000E944E0AD80112968D919C911397DC0144
:100F6000ED91FC910680F781E02D0995F8018281D1
:100F70009381DC01ED91FC910484F585E02D60E026
:100F80000995F80182819381DC01ED91FC91028445
:100F9000F385E02D61E00995F80182819381DC0100
:100FA000ED91FC910684F785E02D61E0099564E6FA
:100FB00070E080E090E00E948909C8010E941F0350
:100FC00060E0C8010E94B802F80180878750823033
:100FD00008F0AFC08781811109C01093DA01009336
:100FE000D90142E050E06FE577E016C0813049F466
:100FF0001093DC010093DB0142E050E068E677E00B
:101000000BC0823009F095C01093DE010093DD0122
:1010100042E050E061E777E00E94A208C8010E9428
:10102000B605C8010E943E0544E06DE7C8010E9474
:10103000E50247E36EE7C8010E94E502D801199670
:101040004C9143704C6860E3C8010E94E50248E897
:1010500062E3C8010E94E50242E463E3C8010E9422
:10106000E50268E0C8010E9435058DE2898384EDC0
:101070008A8342E0BE016F5F7F4FC8010E9439053D
:1010800060E0C8010E948A0740E06FE3C8010E9447
:10109000E50260E0C8010E947A0760E0C8010E9492
:1010A0007E0760E0C8010E94820760E0C8010E94DC
:1010B000860742E16BE0C8010E94E50245E16CE071
:1010C000C8010E94E50247EB65E0C8010E94E50205
:1010D00040E466E0C8010E94E50240E063E7C80121
:1010E0000E94E50240E064E7C8010E94E50243E592
:1010F00065E7C8010E94E50244E666E7C8010E9470
:10110000E50240E067E7C8010E94E50240E56AE2C7
:10111000C8010E94E502C8010E94BF0363E070E0BD
:10112000C8010E94020563E0C8010E94C50481E075
:1011300001C080E00F900F90DF91CF911F910F9130
:10114000089508958230E8F4E82FF0E0EE0FFF1FD5
:10115000EA5FFE4F71836083813041F080916900C6
:101160008C7F842B80936900E89A089580916900B0
:10117000440F551F440F551F837F842B80936900B4
:10118000E99A08951F920F920FB60F9211242F9390
:101190003F934F935F936F937F938F939F93AF93FF
:1011A000BF93EF93FF93E0910601F091070109953A
:1011B000FF91EF91BF91AF919F918F917F916F912F
:1011C0005F914F913F912F910F900FBE0F901F9005
:1011D00018951F920F920FB60F9211242F933F93E1
:1011E0004F935F936F937F938F939F93AF93BF932F
:1011F000EF93FF93E0910801F09109010995FF91A8
:10120000EF91BF91AF919F918F917F916F915F917E
:101210004F913F912F910F900FBE0F901F901895F7
:101220001F920F920FB60F9211242F933F938F931B
:101230009F93AF93BF938091E0019091E101A091C2
:10124000E201B091E3013091DF0123E0230F2D375C
:1012500020F40196A11DB11D05C026E8230F0296BA
:10126000A11DB11D2093DF018093E0019093E10166
:10127000A093E201B093E3018091E4019091E50134
:10128000A091E601B091E7010196A11DB11D8093E7
:10129000E4019093E501A093E601B093E701BF91CB
:1012A000AF919F918F913F912F910F900FBE0F9013
:1012B0001F9018952FB7F8946091E0017091E101AB
:1012C0008091E2019091E3012FBF08953FB7F89418
:1012D0008091E4019091E501A091E601B091E701D0
:1012E00026B5A89B05C02F3F19F00196A11DB11D81
:1012F0003FBF6627782F892F9A2F620F711D811D9E
:10130000911D42E0660F771F881F991F4A95D1F7FC
:101310000895CF92DF92EF92FF92CF93DF936B010C
:101320007C010E946609EB01C114D104E104F104BF
:1013300089F00E94960D0E9466096C1B7D0B683E29
:10134000734090F381E0C81AD108E108F108C85150
:10135000DC4FEACFDF91CF91FF90EF90DF90CF90FD
:101360000895789484B5826084BD84B5816084BD1D
:1013700085B5826085BD85B5816085BDEEE6F0E00E
:10138000808181608083E1E8F0E01082808182606A
:101390008083808181608083E0E8F0E080818160EB
:1013A0008083E1EBF0E0808184608083E0EBF0E01B
:1013B000808181608083EAE7F0E0808184608083BF
:1013C0008081826080838081816080838081806869
:1013D00080831092C1000895833081F028F4813019
:1013E00099F08230A1F008958730A9F08830B9F0E3
:1013F0008430D1F4809180008F7D03C08091800083
:101400008F7780938000089584B58F7702C084B56C
:101410008F7D84BD08958091B0008F7703C0809147
:10142000B0008F7D8093B0000895CF93DF9390E05C
:10143000FC01EE59FD4F2491FC01EA58FD4F8491C7
:10144000882349F190E0880F991FFC01EC56FD4F6D
:10145000A591B49186579D4FFC01C591D4919FB73A
:10146000611108C0F8948C91209582238C93888117
:1014700082230AC0623051F4F8948C91322F309557
:1014800083238C938881822B888304C0F8948C9169
:10149000822B8C939FBFDF91CF9108950F931F9361
:1014A000CF93DF931F92CDB7DEB7282F30E0F9013D
:1014B000E25BFD4F8491F901EE59FD4F1491F90162
:1014C000EA58FD4F04910023C9F0882321F0698375
:1014D0000E94EC096981E02FF0E0EE0FFF1FE65754
:1014E000FD4FA591B4919FB7F8948C91611103C001
:1014F0001095812301C0812B8C939FBF0F90DF91AA
:10150000CF911F910F910895FC01818D228D90E064
:10151000805C9F4F821B91098F7399270895FC016E
:10152000918D828D981731F0828DE80FF11D858D98
:1015300090E008958FEF9FEF0895FC01918D828DCB
:10154000981761F0828DDF01A80FB11D5D968C9117
:10155000928D9F5F9F73928F90E008958FEF9FEF22
:10156000089581E29CE0892B49F080E090E0892B8E
:1015700029F00E94210C81110C9400000895FC01B7
:10158000848DDF01A80FB11DA35ABF4F2C91848D0C
:1015900090E001968F739927848FA689B7892C9341
:1015A000A089B1898C9180648C93938D848D9813DC
:1015B00006C00288F389E02D80818F7D80830895A5
:1015C000CF93DF93EC01888D8823C9F0EA89FB89EA
:1015D000808185FD05C0A889B9898C9186FD0FC0E1
:1015E0000FB607FCF5CF808185FFF2CFA889B989B6
:1015F0008C9185FFEDCFCE010E94BF0AE7CFDF912E
:10160000CF910895CF92DF92FF920F931F93CF93C4
:10161000DF931F92CDB7DEB76C0181E0D6015896FB
:101620008C9358975B969C915B975C968C915C979A
:10163000981307C05096ED91FC915197808185FDDC
:101640002EC0F601038D10E00F5F1F4F0F7311279F
:10165000F02EF601848DF81211C00FB607FCF9CFF9
:10166000D6015096ED91FC915197808185FFF1CF85
:10167000C60169830E94BF0A6981EBCF838DE80FA1
:10168000F11DE35AFF4F6083D6015B960C935B9785
:101690005296ED91FC915397808180620CC0D601E7
:1016A0005696ED91FC91579760835096ED91FC9181
:1016B000519780818064808381E090E00F90DF917A
:1016C000CF911F910F91FF90DF90CF900895BF921F
:1016D000CF92DF92EF92FF92CF93DF93EC016A01FA
:1016E0007B01B22EE889F98982E08083411581EE81
:1016F000580761057105A1F060E079E08DE390E0A5
:10170000A70196010E94C30F2150310941095109D7
:101710005695479537952795211580E1380798F01C
:10172000E889F989108260E874E88EE190E0A70109
:1017300096010E94C30F2150310941095109569564
:10174000479537952795EC85FD853083EE85FF8598
:101750002083188EEC89FD89B082EA89FB8980811B
:1017600080618083EA89FB89808188608083EA893F
:10177000FB89808180688083EA89FB8980818F7DF5
:101780008083DF91CF91FF90EF90DF90CF90BF905B
:1017900008951F920F920FB60F9211242F938F93DB
:1017A0009F93EF93FF93E091F801F091F90180810D
:1017B000E091FE01F091FF0182FD12C090818091C5
:1017C00001028F5F8F7320910202821751F0E09126
:1017D0000102F0E0E851FE4F958F8093010201C0B5
:1017E0008081FF91EF919F918F912F910F900FBE6C
:1017F0000F901F9018951F920F920FB60F92112401
:101800002F933F934F935F936F937F938F939F9308
:10181000AF93BF93EF93FF9388EE91E00E94BF0ACE
:10182000FF91EF91BF91AF919F918F917F916F91B8
:101830005F914F913F912F910F900FBE0F901F908E
:10184000189588EE91E00E94840A21E0892B09F422
:1018500020E0822F08951092EB011092EA0188EEA9
:1018600093E0A0E0B0E08093EC019093ED01A093B1
:10187000EE01B093EF0183E791E09093E90180934B
:10188000E80185EC90E09093F5018093F40184ECFD
:1018900090E09093F7018093F60180EC90E09093B4
:1018A000F9018093F80181EC90E09093FB01809323
:1018B000FA0182EC90E09093FD018093FC0186ECAC
:1018C00090E09093FF018093FE011092010210922C
:1018D000020210920302109204020895CF92DF9246
:1018E000EF92FF920F931F93CF93DF937C016A01D6
:1018F000EB0100E010E00C151D0571F06991D701B6
:10190000ED91FC910190F081E02DC7010995892BA3
:1019100019F00F5F1F4FEFCFC801DF91CF911F91DB
:101920000F91FF90EF90DF90CF90089561157105B2
:1019300081F0DB010D900020E9F7AD014150510924
:10194000461B570BDC01ED91FC910280F381E02DE9
:10195000099480E090E008950C94960CDC01ED91E0
:10196000FC910190F081E02D09946FE771E00C94F7
:10197000960C0F931F93CF93DF93EC010E94960C6C
:101980008C01CE010E94B50C800F911FDF91CF9189
:101990001F910F9108958F929F92AF92BF92CF9215
:1019A000DF92EF92FF920F931F93CF93DF93CDB708
:1019B000DEB7A1970FB6F894DEBF0FBECDBF7C0196
:1019C000C42EE52FCB01D22E19A221E02D1510F047
:1019D0002AE0D22E8E010F5D1F4F8D2C912CA12C51
:1019E000B12C6C2D7E2FA50194010E94C30F8C2D6C
:1019F000D29E80191124015011098A3014F4805D9F
:101A000001C0895CF801808321153105410551052C
:101A100021F0C22EE32FCA01E4CFB801C7010E9412
:101A2000960CA1960FB6F894DEBF0FBECDBFDF9126
:101A3000CF911F910F91FF90EF90DF90CF90BF90CB
:101A4000AF909F908F900895CF92DF92EF92FF9288
:101A50000F931F93CF93DF93EC016A017B01211554
:101A6000310579F4E881F9810190F081E02D642F4E
:101A7000DF91CF911F910F91FF90EF90DF90CF906A
:101A800009942A303105E9F477FF1AC06DE20E940B
:101A9000AE0C8C0144275527BA014C195D096E091B
:101AA0007F092AE0CE010E94CB0C800F911FDF91AD
:101AB000CF911F910F91FF90EF90DF90CF900895FD
:101AC0002AE0B701A601CE01DF91CF911F910F91BE
:101AD000FF90EF90DF90CF900C94CB0C0F931F935F
:101AE000CF93DF93EC019A01AB01662757FD609518
:101AF000762F0E94240D8C01CE010E94B50C800F20
:101B0000911FDF91CF911F910F91089508950E9429
:101B1000B1090E94860D0E94D701C1EBDAE00E9454
:101B200007022097E1F30E94B10AF9CF08955058B7
:101B3000BB27AA270ED06FC160D130F065D120F04D
:101B400031F49F3F11F41EF455C10EF4E095E7FB0C
:101B500022C1E92F71D180F3BA1762077307840796
:101B6000950718F071F49EF5A0C10EF4E0950B2EC8
:101B7000BA2FA02D0B01B90190010C01CA01A001DF
:101B80001124FF27591B99F0593F50F4503E68F13A
:101B90001A16F040A22F232F342F4427585FF3CF7B
:101BA000469537952795A795F0405395C9F77EF44C
:101BB0001F16BA0B620B730B840BBAF09150A1F095
:101BC000FF0FBB1F661F771F881FC2F70EC0BA0F1B
:101BD000621F731F841F48F4879577956795B795A3
:101BE000F7959E3F08F0B3CF9395880F08F099279B
:101BF000EE0F979587950895AAD008F481E008958F
:101C00000CD009C101D140F0F8D030F021F45F3F91
:101C100019F0C1C051114AC1EDC00ED198F39923FA
:101C2000C9F35523B1F3951B550BBB27AA276217A0
:101C30007307840738F09F5F5F4F220F331F441FE5
:101C4000AA1FA9F333D00E2E3AF0E0E830D091501D
:101C50005040E695001CCAF729D0FE2F27D0660F0A
:101C6000771F881FBB1F261737074807AB07B0E849
:101C700009F0BB0B802DBF01FF2793585F4F2AF05F
:101C80009E3F510568F087C011C15F3FECF3983E5D
:101C9000DCF3869577956795B795F7959F5FC9F7BC
:101CA000880F911D9695879597F90895E1E0660F45
:101CB000771F881FBB1F621773078407BA0720F0BE
:101CC000621B730B840BBA0BEE1F88F7E095089527
:101CD000BBD088F09F5790F0B92F9927B751A0F04B
:101CE000D1F0660F771F881F991F1AF0BA95C9F7B0
:101CF00012C0B13081F0D9D0B1E00895D6C0672FBD
:101D0000782F8827B85F39F0B93FCCF3869577955F
:101D10006795B395D9F73EF4909580957095619548
:101D20007F4F8F4F9F4F0895A9D080F09F3740F489
:101D300091110EF0BBC060E070E080E89FEB089569
:101D400026F41B16611D711D811D2BC045C0990F06
:101D50000008550FAA0BE0E8FEEF16161706E80775
:101D6000F907C0F012161306E407F50798F0621B96
:101D7000730B840B950B39F40A2661F0232B242B6B
:101D8000252B21F408950A2609F4A140A6958FEF8A
:101D9000811D811D089597F99F6780E870E060E0DC
:101DA0000895882371F4772321F09850872B762F9C
:101DB00007C0662311F499270DC09051862B70E05F
:101DC00060E02AF09A95660F771F881FDAF7880F70
:101DD0009695879597F908959F3F31F0915020F49B
:101DE000879577956795B795880F911D96958795F7
:101DF00097F908959FEF80EC089500240A94161631
:101E0000170618060906089500240A9412161306E8
:101E1000140605060895092E0394000C11F4882376
:101E200052F0BB0F40F4BF2B11F460FF04C06F5F92
:101E30007F4F8F4F9F4F089557FD9058440F551F68
:101E400059F05F3F71F04795880F97FB991F61F03C
:101E50009F3F79F087950895121613061406551FB3
:101E6000F2CF4695F1DF08C0161617061806991F1F
:101E7000F1CF86957105610508940895E5DFA0F01E
:101E8000BEE7B91788F4BB279F3860F41616B11D5A
:101E9000672F782F8827985FF7CF86957795679576
:101EA000B11D93959639C8F30895E894BB2766272A
:101EB0007727CB0197F908954ADF08F48FEF08954B
:101EC0000BD0A9CF9ADF28F09FDF18F0952309F0F7
:101ED00062CF90CF1124EACFAFDFA0F3959FD1F36B
:101EE000950F50E0551F629FF001729FBB27F00DC8
:101EF000B11D639FAA27F00DB11DAA1F649F66271D
:101F0000B00DA11D661F829F2227B00DA11D621F6B
:101F1000739FB00DA11D621F839FA00D611D221F25
:101F2000749F3327A00D611D231F849F600D211D09
:101F3000822F762F6A2F11249F5750408AF0E1F0AC
:101F400088234AF0EE0FFF1FBB1F661F771F881FF5
:101F500091505040A9F79E3F510570F01CCFA6CF7D
:101F60005F3FECF3983EDCF3869577956795B795E0
:101F7000F795E7959F5FC1F7FE2B880F911D96950A
:101F8000879597F90895A1E21A2EAA1BBB1BFD01A4
:101F90000DC0AA1FBB1FEE1FFF1FA217B307E40748
:101FA000F50720F0A21BB30BE40BF50B661F771FA0
:101FB000881F991F1A9469F7609570958095909580
:101FC0009B01AC01BD01CF010895EE0FFF1F0590ED
:101FD000F491E02D0994FB01DC0102C005900D9203
:101FE00041505040D8F70895FB01DC0102C0019038
:0E1FF0000D9241505040D8F70895F894FFCF5D
:101FFE00010000005701A108A10841434B005245C2
:10200E004A00626C6164206F62696572616E69611B
:10201E00006272616B207379676E616C6F7700522C
:10202E0046323220696E6974206661696C6564009F
:10203E00737461727475700020696E66696E69746E
:10204E00792000000000006902700274029302956C
:10205E0002780280028502000000009702980200BA
:10206E00000000020B6E0C840A9D0A8F0AE00A0D16
:10207E000A006E616E00696E66006F7666002E0055
:00000001FF
